:03000000020908EA
:0C090800787FE4F6D8FD75812002094FCD
:10080000003FFC00001FF800008040C020A060E016
:10081000109050D030B070F0088848C828A868E818
:10082000189858D838B878F8048444C424A464E4E8
:10083000149454D434B474F40C8C4CCC2CAC6CECB8
:100840001C9C5CDC3CBC7CFC028242C222A262E2B8
:10085000129252D232B272F20A8A4ACA2AAA6AEAB8
:100860001A9A5ADA3ABA7AFA068646C626A666E688
:10087000169656D636B676F60E8E4ECE2EAE6EEE58
:100880001E9E5EDE3EBE7EFE018141C121A161E170
:10089000119151D131B171F1098949C929A969E988
:1008A000199959D939B979F9058545C525A565E558
:1008B000159555D535B575F50D8D4DCD2DAD6DED28
:1008C0001D9D5DDD3DBD7DFD038343C323A363E328
:1008D000139353D333B373F30B8B4BCB2BAB6BEB28
:1008E0001B9B5BDB3BBB7BFB078747C727A767E7F8
:1008F000179757D737B777F70F8F4FCF2FAF6FEFC8
:080900001F9F5FDF3FBF7FFF77
:040BF10002080000F6
:070BE500EF90080893FF22C6
:0F0BB300AD07AC06ECFF120BE58F80EDF5A0222D
:100AC100120AD1B29074AAFFFE120BB37FDC7E0032
:100AD100E4FDFCC3ED9FEC9E5015E4FBFA0BBB005B
:0F0AE100010ABA07F8BBD0F50DBD00010C80E487
:010AF00022E3
:100B8700A2B29204300208300405D203C20222C284
:050B970003A20492021C
:010B9C002236
:100B9D00A2B39204300008300405D201C20022C273
:050BAD0001A20492000A
:010BB2002220
:100A8700E50915097002150814AE08D39400EE9411
:100A970000400122E50E4510FEE50F4511FF9008C5
:100AA70000E4935EFE7401935F4E70047F01800241
:0A0AB7007F00A203E4335F24FF2256
:100AF100E510450EFEE511450FFF900802E4935EF7
:100B0100FE7401935F4E70047F0180027F00A20199
:060B1100E4335F24FF2223
:0D0BC200900804E493420E740193420F2248
:0D0BCF00900806E493421074019342112235
:050BEC00150D15122299
:100B7000E50F25E0F50FE50E33F50EE510C313F58F
:070B800010E51113F511222D
:100B5700E51145106006750827750910E50E451063
:090B6700F50AE50F4511F50B221A
:100B1700E4FFFE120BB3751203750D06E4F50EF52F
:100B27000FF510F511F50AF50BC203C201C202C297
:020B370000229A
:100B3900750D06751203751000751101E4F50EF5B2
:0E0B49000FC202C200C203C201F50AF50B2260
:090BDC00758901D28C75A88222F2
:03000B00020A1BCB
:100A1B00C0E0C083C082C0D075D000C004C005C088
:100A2B0006C007309105120B178040120BECE50D39
:100A3B007006120B70750D06E5127019120B8712EA
:100A4B000B9D120A875003120BC2120AF1500312AC
:100A5B000BCF751203120B57AF0BAE0A120BB3E58C
:100A6B000B450A6004D2978002C297D007D006D0FC
:0C0A7B0005D004D0D0D082D083D0E0326F
:100994007FFA7E00120AD1120AD1120AD1120AD1A8
:1009A400D291D2B2D2B37580FF75A0FFC290E4F9A0
:1009B40074017E00A801088005C333CE33CED8F974
:1009C400FF120BB37F327E00120AD1B29009B91024
:1009D400DFE4FFFE120BB37FDC120AC1B2907F5436
:1009E4007E55120BB37FDC7E00120AC1E4FF120BAA
:1009F400B3B2907F207E03120AD1120B39120BDCA2
:100A0400B2903091097F967E00120AD180F27F5015
:070A14007E00120AD180E907
:10091400020994E493A3F8E493A34003F68001F25C
:1009240008DFF48029E493A3F85407240CC8C333E4
:10093400C4540F4420C8834004F456800146F6DFB3
:10094400E4800B0102040810204080900BF1E47E47
:10095400019360BCA3FF543F30E509541FFEE493A8
:10096400A360010ECF54C025E060A840B8E493A36F
:10097400FAE493A3F8E493A3C8C582C8CAC583CA9A
:10098400F0A3C8C582C8CAC583CADFE9DEE780BE52
:010BF50000FF
:00000001FF
